:100000000C942A000C9447000C9447000C94470071
:100010000C9447000C9447000C9447000C94470044
:100020000C9447000C9449000C9447000C94470032
:100030000C9447000C9447000C9447000C94470024
:100040000C9447000C9447000C9447000C94470014
:100050000C94470011241FBECFE5D8E0DEBFCDBF12
:1000600011E0A0E6B0E0EAEFF2E002C005900D92E8
:10007000AA3AB107D9F711E0AAEAB1E001C01D928E
:10008000AE3AB107E1F70E94CD000C947B010C94CD
:1000900000001F920F920FB60F9211248F939F931F
:1000A0008091AC019091AD0103976CF01092AD017D
:1000B0001092AC018091AA019091AB0101969093AE
:1000C000AB018093AA018091AC019091AD010196A2
:1000D0009093AD018093AC019F918F910F900FBED3
:1000E0000F901F9018958EB581608EBD89B7846082
:1000F00089BF78940895939A939808959098089555
:10010000909A089591980895919A089581B38F6077
:1001100081BB82B3807F82BB0E9480000C948400EC
:1001200092980895929A0895CF93DF9300D0CDB717
:10013000DEB76A8389830E949000898190E06A819A
:1001400002C0959587956A95E2F780FF03C00E94EB
:10015000800002C00E947E000E947B000F900F90E2
:10016000DF91CF910C9492001F93CF93DF93182FC0
:100170000E949000C8E0D0E010FF03C00E94800001
:1001800002C00E947E000E947B0016952197A1F775
:10019000DF91CF911F910C949200CF93DF93CDB755
:1001A000DEB72D970FB6F894DEBF0FBECDBF0E940D
:1001B00086000E9473008FEF81BB8ABB26E0E3EAD2
:1001C000F1E0CE010196DC0101900D922A95E1F754
:1001D0001C018091AA019091AB018F36910524F00A
:1001E0001092AB011092AA018091AA019091AB01EB
:1001F00007E010E02EE630E0281B390B3D872C8706
:100200000BBB0E94900066246394712C002E02C0E8
:10021000660C771C0A94E2F72EE6E22EF12C3EE102
:10022000432E512CF10101900020E9F73E2F3219A5
:1002300032503F83C12CD12C91018F81280F311D69
:1002400087FD3A953B872A8749C0470184E0A82E5D
:10025000B12C2A853B852C0D3D1D398728872C859F
:100260003D85821693062CF557FC23C0E885F98559
:100270008081992787FD90958156910925E0289FD7
:10028000F001299FF00D1124EA0DFB1DEF5DFE4FDB
:10029000808190E08095909586219721892B19F097
:1002A0000E94800002C00E947E0031E0431A510883
:1002B00002C00E94800081E0881A91080E947B00A1
:1002C00091E0A91AB10858F60E9480000E947B00B4
:1002D000F6E0EF1AF10821E0C21AD1088F818C0DE7
:1002E00087FFB3CFF7FE9ECF0E9492000150110905
:0A02F00009F086CF6ECFF894FFCF1F
:1002FA0084A4A4A4FC00F400000000000000000094
:10030A008080FC8080000084FC84000000000000E3
:10031A000000FC8484847800FCA4A4A48400FC0467
:10032A0004040400FCA0A0A080008080FC8080005F
:10033A0000000000000084A4A4A4FC00F400000053
:10034A0000000000000000000000000000000000A3
:10035A000000000000000000FC202020FC007C902F
:10036A0090907C00788484848400FC304884000067
:10037A00FCA4A4A48400FC403008FC000000000097
:10038A0000000084FC84000048A4A4A41800000013
:10039A00000000007884848484007884848478004F
:1003AA00788484847800FC04040404000000F400C7
:1003BA00007C9090907CFCA4A4A4587884848484C3
:1003CA00FC84848478FCA4A4A484FCA0A0A0807CDF
:1003DA008484949CFC202020FC0084FC84000884F3
:1003EA0084F800FC30488400FC04040404FC402027
:1003FA0040FCFC403008FC7884848478FCA0A0A0EF
:10040A004040A0A0A0FCFCA0A0B04C48A4A4A41802
:10041A008080FC8080F8040404F8C0300C30C0FCF2
:10042A00081008FC844830488480403C4080848C12
:0A043A0094A4C468616C6C6F0000AC
:00000001FF
