:100000000C942A000C9447000C9447000C94470071
:100010000C9447000C9447000C9447000C94470044
:100020000C9447000C9447000C9447000C94490032
:100030000C9447000C9447000C9447000C94470024
:100040000C9447000C9447000C9447000C94470014
:100050000C94470011241FBECFE5D8E0DEBFCDBF12
:1000600010E0A0E6B0E0E4E1F2E002C005900D92FD
:10007000A039B107D9F710E0A0E9B0E001C01D92A6
:10008000A139B107E1F70E94D8000C9408010C9443
:1000900000001F920F920FB60F9211242F933F93DF
:1000A0004F935F936F937F938F939F93AF93BF9380
:1000B000CF93EF93FF93C0919000CBBB07C0FC019F
:1000C000E05AFF4F80810E94BF00C85F8C2F90E0F4
:1000D00080319105A4F3809190008F5F87708093A9
:1000E0009000FF91EF91CF91BF91AF919F918F9130
:1000F0007F916F915F914F913F912F910F900FBE24
:100100000F901F90189583B7836083BF89B7816074
:1001100089BF7894089581B38F6081BB82B3807F5B
:1001200082BB0895939A939808959098919A089510
:10013000909A919A089592980895929A0895CF93DB
:10014000DF9300D0CDB7DEB76A8389830E949B001E
:10015000898190E06A8102C0959587956A95E2F75A
:1001600080FF03C00E94980002C00E9495000E9478
:1001700092000F900F90DF91CF910C949D001F93F0
:10018000CF93DF93182F0E949B00C8E0D0E010FFB0
:1001900003C00E94980002C00E9495000E94920035
:1001A00016952197A1F7DF91CF911F910C949D0097
:1001B0000E948B008FEF81BB8ABB97E0D92E01E0B4
:1001C00010E0DBBA0E949B0078010D2C02C0EE0CFF
:1001D000FF1C0A94E2F7C0E9D0E08A9190E0809594
:1001E00090958E219F21892B19F00E94980002C0C2
:1001F0000E9495000E94920080E0C036D80769F7FF
:100200000E949D00DA94D7FEDCCF87E0D82ED9CFAC
:04021000F894FFCF90
:10021400FCA0A0B04C00FCA4A4A48400C0300C300A
:10022400C00048A4A4A41800FCA0A0A040007C9096
:1002340090907C00788484848400FCA4A4A484002A
:00000001FF
