:100000000C942A000C9447000C9447000C94470071
:100010000C9447000C9447000C9447000C94470044
:100020000C9447000C9449000C9447000C94470032
:100030000C9447000C9447000C9447000C94470024
:100040000C9447000C9447000C9447000C94470014
:100050000C94470011241FBECFE5D8E0DEBFCDBF12
:1000600011E0A0E6B0E0E0E2F3E002C005900D92FE
:10007000A43AB107D9F711E0A4EAB1E001C01D929A
:10008000A83AB107E1F70E94CD000C948E010C94C0
:1000900000001F920F920FB60F9211248F939F931F
:1000A0008091A6019091A70103976CF01092A7018F
:1000B0001092A6018091A4019091A50101969093C0
:1000C000A5018093A4018091A6019091A7010196BA
:1000D0009093A7018093A6019F918F910F900FBEDF
:1000E0000F901F9018958EB581608EBD89B7846082
:1000F00089BF78940895939A939808959098089555
:10010000909A089591980895919A089581B38F6077
:1001100081BB82B3807F82BB0E9480000C948400EC
:1001200092980895929A0895CF93DF9300D0CDB717
:10013000DEB76A8389830E949000898190E06A819A
:1001400002C0959587956A95E2F780FF03C00E94EB
:10015000800002C00E947E000E947B000F900F90E2
:10016000DF91CF910C9492001F93CF93DF93182FC0
:100170000E949000C8E0D0E010FF03C00E94800001
:1001800002C00E947E000E947B0016952197A1F775
:10019000DF91CF911F910C949200CF93DF93CDB755
:1001A000DEB72E970FB6F894DEBF0FBECDBF0E940C
:1001B00086000E9473008FEF81BB8ABB8EE695E6B6
:1001C000A5E6B0E089839A83AB83BC83FE013196B8
:1001D000DF010D900020E9F78D01015011090E1B80
:1001E0001F0B11272801B0E54B0E511CFE83ED8338
:1001F00035E0232E8091A4019091A501481659065F
:1002000024F41092A5011092A4018091A401909170
:10021000A50127E0E22EF12C9201281B390B3E8725
:100220002D87EBBA0E94900021E030E00E2C02C036
:10023000220F331F0A94E2F738872F8362013801B7
:100240002D853E85C216D3060CF057C077FC55C0ED
:10025000ED81FE8101900020E9F73E2E3D81331AA9
:100260003A943A94A12CB12C21E030E02C0F3D1FA0
:10027000230D311D37FC3A953C872B8739C084E02C
:10028000882E912C2B853C852A0D3B1D3A8729878A
:10029000A985BA858C91992787FD909581569109FA
:1002A000289EF001299EF00D1124E80DF91DEF5D47
:1002B000FE4F808190E0809590952F813885822334
:1002C0009323892B19F00E94800002C00E947E00B7
:1002D0000E947B0031E0831A9108D0F695E0691AFC
:1002E00071080E9480000E947B00A1E0AA1AB10858
:1002F000832D8A0D87FFC3CF02C00E948000B1E02A
:10030000CB1AD1080E947B00D7FE9ACF0E949200A0
:10031000E1E0EE1AF10809F084CF6CCFF894FFCF3A
:1003200084A4A4A4FC00F40000000000000000006D
:100330008080FC8080000084FC84000000000000BD
:100340000000FC8484847800FCA4A4A48400FC0441
:1003500004040400FCA0A0A080008080FC80800039
:1003600000000000000084A4A4A4FC00F40000002D
:10037000000000000000000000000000000000007D
:100380000000000000000000FC202020FC007C9009
:1003900090907C00788484848400FC304884000041
:1003A000FCA4A4A48400FC403008FC000000000071
:1003B00000000084FC84000048A4A4A418000000ED
:1003C0000000000078848484840078848484780029
:1003D000788484847800FC04040404000000F400A1
:1003E000007C9090907CFCA4A4A45878848484849D
:1003F000FC84848478FCA4A4A484FCA0A0A0807CB9
:100400008484949CFC202020FC0084FC84000884CC
:1004100084F800FC30488400FC04040404FC402000
:1004200040FCFC403008FC7884848478FCA0A0A0C8
:100430004040A0A0A0FCFCA0A0B04C48A4A4A418DC
:100440008080FC8080F8040404F8C0300C30C0FCCC
:10045000081008FC844830488480403C4080848CEC
:0404600094A4C4009C
:00000001FF
