:100000000C942A000C9434000C9434000C943400AA
:100010000C9434000C9434000C9434000C94340090
:100020000C9434000C9434000C9434000C94340080
:100030000C9434000C9434000C9434000C94340070
:100040000C9436000C9434000C9434000C9434005E
:100050000C94340011241FBECFE5D8E0DEBFCDBF25
:100060000E9446000C9450000C9400001F920F92C6
:100070000FB60F9211248F9385B1809588BB369A65
:100080008F910F900FBE0F901F9018958FEF87BB29
:10009000329A3D9A3E9A339A379A7894369AFFCF9D
:0400A000F894FFCF02
:00000001FF
